:100000000C9421030C9459030C9459030C94590338
:100010000C9459030C9459030C9459030C945903F0
:100020000C9459030C9459030C9409230C94C52285
:100030000C9403240C9459030C9459030C94590305
:100040000C9459030C9459030C9459030C945903C0
:100050000C9459030C94DF230C9459030C9459030A
:100060000C9459030C9459030C9459030C945903A0
:100070000C9459030C9459030C9459030C94590390
:100080000C9459030C9459030C9459030C94590380
:100090000C9459030C9459030C9459030C94590370
:1000A0000C9459030C9459030C94590305010980CD
:1000B000A101850319012AB700150126B700950192
:1000C00075108100C0050C0901A101850419012AE0
:1000D000A002150126A002950175108100C00660DE
:1000E000FF0961A1010962150026FF00952075082E
:1000F00081020963150026FF00952075089102C052
:1001000005010906A101050719E029E715002501E8
:10011000950875018102950175088101050719008F
:1001200029FF150026FF00950675088100050819AE
:10013000012905950575019102950175039101C08D
:1001400000000000000000000000000000000000AF
:10015000000000000000000000000000000000009F
:10016000000000007E0F00D4FFFFFFC700000078F2
:1001700000000000000000002A2B28000000000002
:100180000000000000000000000000290000000046
:100190002C1E3420212224342627252E362D3738B4
:1001A000271E1F202122232425263333362E3738BD
:1001B0001F0405060708090A0B0C0D0E0F1011127B
:1001C000131415161718191A1B1C1D2F3130232D47
:1001D000350405060708090A0B0C0D0E0F10111245
:1001E000131415161718191A1B1C1D2F3130354CF6
:1001F0001E0F0500047F3F1F643214643214783CE4
:100200001E1E140A05000101010101010101010284
:1002100002020202020202020303030303030303B6
:100220000404040404040405050505050606060681
:1002300006070707070708080808090909090A0A3D
:100240000A0B0B0B0C0C0C0D0D0D0E0E0E0F0F0FE1
:10025000101011111112121313141415151616176C
:1002600017181819191A1A1B1B1C1D1D1E1E1F20DA
:1002700020212222232424252626272829292A2B27
:100280002C2D2D2E2F30313232333435363738394C
:100290003A3B3C3D3E3F4041424344454647484946
:1002A0004A4C4D4E4F50515354555658595A5B5D18
:1002B0005E5F616264656668696B6C6D6F707273B6
:1002C0007577787A7B7D7E8082838587888A8C8E1D
:1002D0008F91939596989A9C9EA0A2A3A5A7A9AB4F
:1002E000ADAFB1B3B5B7BABCBEC0C2C4C6C9CBCD41
:1002F000CFD1D4D6D8DBDDDFE2E4E7E9EBEEF0F3F3
:10030000F5F8FAFDFFFFAA7F55402223252628296C
:100310002A2C2D2F3032333536383A3B3D3E404281
:10032000434547494A4C4E5051535557595A5C5EC4
:100330006062646668696B6D6F71737577797B7DD8
:100340007F81838587898A8C8E90929496989A9CD7
:100350009E9FA1A3A5A7A8AAACAEAFB1B3B4B6B8EF
:10036000B9BBBCBEBFC1C2C3C5C6C7C9CACBCCCD51
:10037000CED0D1D2D2D3D4D5D6D7D7D8D9D9DADA2C
:10038000DBDBDBDCDCDCDCDCDDDDDDDDDCDCDCDCAC
:10039000DCDBDBDBDADAD9D9D8D7D7D6D5D4D3D2E0
:1003A000D2D1D0CECDCCCBCAC9C7C6C5C3C2C1BFBE
:1003B000BEBCBBB9B8B6B4B3B1AFAEACAAA8A7A522
:1003C000A3A19F9E9C9A98969492908E8C8A8987DE
:1003D0008583817F7D7B79777573716F6D6B6968BC
:1003E000666462605E5C5A5957555351504E4C4A90
:1003F0004947454342403E3D3B3A3836353332303B
:100400002F2D2C2A292826252322167C1E001F008A
:1004100020002100220023002400250026002700C0
:100420002D002E002A004A002B0014001A0008009C
:10043000150017001C0018000C00120013002F00FC
:10044000300031004B00390004001600070009009D
:100450000A000B000D000E000F00330034002800CE
:100460004C004E00E10064001D001B000600190056
:10047000050011001000360037003800E50052007A
:10048000A800E000E300E2000000000000002C00F3
:10049000000000000000E6002152500051004F0013
:1004A000167C3A003B003C003D003E003F0040000F
:1004B0004100420043004400450001004D0001009E
:1004C000207821782378247825782678277828784A
:1004D0000100460047004800007C01000100297827
:1004E0002A78010001000100010001000100010063
:1004F00001000100010001000100010001000100F4
:100500000100010001000100137001000100010061
:1005100001000100A900010001000100010000002C
:1005200000000000010000000000000001000100C8
:10053000AC00AA00AB00A900AA00A900AA00090209
:10054000BF00050100A0FA09040000010301010039
:100550000921110100012240000705810308000163
:100560000904010002030000000921110100012219
:100570002200070582032000010705030320000174
:1005800009040200010300000009211101000122F9
:10059000320007058403200001080B03020101005B
:1005A0000009040300000101000009240100010901
:1005B00000010409040400020103000007240100F3
:1005C0000141000624020101000624020202000982
:1005D00024030103010201000924030204010101B3
:1005E000000905060240000500000525010101097A
:1005F00005850240000500000525010103120100E8
:1006000002000000087470231801000102000116A6
:1006100003560061006E006700750061007200649F
:100620000036003500000014034B006500650062D1
:1006300000660072006F006E007400000004030981
:10064000040011241FBECFEFDAE0DEBFCDBF04B639
:1006500003FE18C080915A0590915B05A0915C053E
:10066000B0915D058730904BA740B04B59F4109284
:100670005A0510925B0510925C0510925D05E0E052
:10068000F8E3099525E0AEECB1E001C01D92AA3572
:10069000B207E1F711E0A0E0B1E0E2E5FCE502C05D
:1006A00005900D92AE3CB107D9F70E942A240C9414
:1006B000BE2D0C9400000F93262F042F0F77482F88
:1006C000406BE0916D04F0916E0463E070E08DE6A4
:1006D00094E009950F9108950F931F939B01305E4D
:1006E0008901000F012F001F110B11952F77482F43
:1006F000406EE0916D04F0916E0463E070E08DE671
:1007000094E009951F910F910895482F2091690455
:100710009091300457E0291302C080E0089530E042
:10072000529FF001539FF00D1124EF5CFB4F81812C
:10073000681306C08081481303C085818111EECF04
:100740002F5F3F4F2770E7CFA3E0B0E0EAEAF3E086
:100750000C942A2C7C01162FD42EC22E8091920448
:10076000843071F5E0918704F09188043097C1F1ED
:10077000C701019763E070E00E94DC2BCB01880F7A
:10078000991F860F971F19834A83CB824E2D481BD2
:100790009E012F5F3F4FBC018DE694E00995E091EB
:1007A0008B04F0918C04309739F00C2D2D2D412FB6
:1007B000B7018DE694E009952396E8E00C94462C69
:1007C00082E0E816F10409F45AC083E0E816F10467
:1007D000A9F081E0E816F10409F484C0F12CE12CC1
:1007E000E0918904F0918A043097C9F20C2D2D2DE7
:1007F000412FB7018DE694E00995D1CF862F807FF8
:10080000803A11F188F48038D1F0E0917104F091D0
:100810007204803929F7309719F3123F49F12C2DD2
:100820004D2D612F6F7027C0803E99F0803FB1F051
:10083000E0916F04F0917004803B91F6ECCFE09171
:100840007304F0917404E7CFE0917504F09176049D
:10085000E2CFE0917704F0917804DDCF623F09F0B8
:10086000BFCFE0917904F0917A04309709F4B8CFC2
:100870002C2D4D2D62EF8DE694E0099590CF862FBB
:10088000807F803DB9F0803FD1F0E0917B04F09112
:100890007C04803C09F0A4CF309709F4A1CF812FCC
:1008A0008D7F4D2D612F6F70813FC9F08DE694E0F3
:1008B000099575CFE0917D04F0917E04EDCFE09134
:1008C0007F04F0918004633F39F0613F09F088CFE5
:1008D000E0918104F0918204309709F481CF4D2D8D
:1008E000612FE4CFE0918304F0918404683F38F4F1
:1008F000663F09F075CFE0918504F091860430974A
:1009000009F46ECF612F8DE694E0099548CFE8EDAC
:10091000F0E080818E7F80831092E2001092DA00F6
:100920001092E100A0EEB0E08C9181608C93808108
:100930008F77808319BCA7EDB0E08C918E7F8C936C
:1009400080818F7E80831092190408952091E400A5
:100950003091E50095E6A9012091EC00822F81708D
:1009600020FF06C08091E80080FF06C080E0089567
:100970002091E80022FD1AC080912604882389F086
:10098000853089F08091EB0085FD0FC02091E40057
:100990003091E50042175307F9F29150E1F684E0F7
:1009A000089582E0089583E0089581E00895EF922C
:1009B000FF920F931F93CF937C018B010E94A6049B
:1009C000C82F811117C08091E80085FD0BC0809170
:1009D000E8008E778093E8000E94A604882399F3AC
:1009E000C82F08C0F70181917F018093F100015069
:1009F000110949F78C2FCF911F910F91FF90EF9024
:100A00000895EF92FF920F931F93CF937C018B0178
:100A10000E94A604C82F811117C08091E80085FDAF
:100A20000BC08091E8008B778093E8000E94A604B9
:100A3000882399F3C82F08C08091F100F7018193B2
:100A40007F010150110949F78C2FCF911F910F9110
:100A5000FF90EF9008958091280487FF13C0809144
:100A6000E80082FF06C08091E8008B778093E80061
:100A700004C0809126048111F2CF0895809126044C
:100A80008823D9F38091E80080FFF8CF8091E800B7
:100A90008E77ECCF982F9093E900242F762F50E09B
:100AA000891731F07091EC002091ED005091F00029
:100AB00021FD07C09F5F973071F78093E90081E0C7
:100AC00008953091EB003E7F3093EB003091ED00C4
:100AD0003D7F3093ED003091EB0031603093EB00BF
:100AE0007093EC002093ED005093F0002091EE0005
:100AF00027FDE0CF80E00895B0E0A0E0E2E8F5E077
:100B00000C942A2CC8EDD0E088818F7E8883E7ED95
:100B1000F0E080818160808384E082BF81E0809307
:100B2000190488818E7F888302EE10E0F80110821C
:100B30001092DA0081EEC82ED12CF6011082888145
:100B40008F77888388818068888388818F7D888378
:100B500019BC1092260410922704109225041092BA
:100B6000240490EEE92EF12CF70180818B7F8083A5
:100B700088818160888342E060E080E00E944A05CD
:100B8000F60180818E7F8083F8018081816080837F
:100B9000808188608083F70180818E7F8083888157
:100BA00080618883CDB7DEB7E8E00C94462CFC0169
:100BB00080912E0490912F0486179707A0F061155D
:100BC000710529F49091E8009E779093E80090E0F9
:100BD0006115710551F4911108C08091E80082FF00
:100BE00034C080E00895BC01F2CF809126048823B0
:100BF000C1F18530C1F18091E80083FD30C0809162
:100C0000E80082FDEACF8091E80080FFE1CF80918B
:100C1000F3002091F200382F6115710519F028308A
:100C2000310558F091E02830310509F090E020912D
:100C3000E8002E772093E800CBCF81918093F100DC
:100C4000615071092F5F3F4FE7CF809126048823C1
:100C500041F0853041F08091E80083FFBECF81E014
:100C6000089582E0089583E008950895089580919D
:100C70001B0408959C014FB7F8948091150490913E
:100C80001604A0911704B09118044FBF821B930B58
:100C900008952FB7F894609115047091160480910F
:100CA0001704909118042FBF08952FB7F8948091DE
:100CB000150490911604A0911704B09118042FBF49
:100CC00008959C01FC0132969FEF80E04191461708
:100CD00051F09F3F19F4411101C0982F8F5F86306A
:100CE000A9F79F3F09F40895290F311D97FD3A9503
:100CF000F90162830895A3E0B0E0E1E8F6E00C9426
:100D0000302C209112043091130428173907A1F0D8
:100D10009093130480931204E0911004F091110455
:100D2000309751F024E029839B838A830680F781E2
:100D3000E02DCE01019609952396E2E00C944C2C0F
:100D4000A3E0B0E0E6EAF6E00C94302C20910E042B
:100D500030910F0428173907A1F090930F04809366
:100D60000E04E0911004F0911104309751F023E04B
:100D700029839B838A830680F781E02DCE0101962B
:100D800009952396E2E00C944C2CE0911004F0912C
:100D90001104309729F00190F081E02D0995089514
:100DA00080E00895FA01811101C0FB0109950895C1
:100DB00080910604982F9E7F29F481708260809331
:100DC000060408958635E8F381708465F8CFAF9204
:100DD000BF92DF92EF92FF920F931F93CF93DF9317
:100DE000082F162FE901E42FF0E0EB5FFD4F6111B2
:100DF00010C0E4915E2F4E2F4983E8835A83DF9120
:100E0000CF911F910F91FF90EF90DF90BF90AF9027
:100E10000895E62EF12C4491D42EE42FF0E026E044
:100E2000829FC00111242FEF30E0B9010E94DC2B1A
:100E3000802F90E0880F991F55E5569FD001579F4E
:100E4000B00D11248A1B9B0B982F990F890F590104
:100E5000AE18BF08AE9ED001AF9EB00DBE9EB00DC5
:100E600011245B2F189F80011124012F1127590194
:100E7000A01AB10AAE9E8001AF9E100DBE9E100D4D
:100E800011245901A81AB108AE9CC001AF9C900D65
:100E9000BE9C900D1124892F9927281B390B2E9F5A
:100EA000C0012F9F900D3E9F900D1124E92F6230BD
:100EB0007105A1F050F46115710509F49DCF613001
:100EC000710581F0EB2F512F97CF6430710569F0D8
:100ED00080F06630710509F48FCFF4CFE42F4B2FEB
:100EE000592F8ACFE42F412F87CFEB2F542F492F33
:100EF00083CF4B2F5D2DE12F7FCF08950895982F3D
:100F0000907F903BE9F040F49039D1F0903AC1F0F5
:100F10009038B1F080E00895903D19F020F4903CB5
:100F2000C9F782E00895903E59F0903F99F7815FAC
:100F30008F3080F7E82FF0E0EC57FE4F8081089566
:100F400083E00895A7E0B0E0E8EAF7E00C942D2CE8
:100F50008C0108511F4F80912604843009F06CC029
:100F6000809112018F708093E9008091E80082FFE8
:100F700063C08091E80085FF5FC050E040E064E01E
:100F800070E0CE0101960E9401058091E80085FD88
:100F900005C08091E8008B778093E800FA808F2D60
:100FA0000E947F07282FFD828B818E838C818F8307
:100FB00021110AC08981843039F1873029F18630C6
:100FC00029F121E0853039F630E0E5E0F0E0EC0F82
:100FD000FD1FE30FF11DF0804FB7F894D801119673
:100FE000EC911197F0E0CF01019612966C9170E0B0
:100FF0000E94F02BD8015C915817190649F44FBF95
:101000003F5F321710F3A7CF23E0DECF22E0DCCF23
:1010100013968D919C911497E80FF91FF082119609
:101020008C91119790E0019612966C9170E00E945D
:10103000F02BF8018183E3CF2796E5E00C94492C4F
:10104000A4E0B0E0E6E2F8E00C942B2C7B01142F36
:10105000D22E4A832B830C83842F0E947F07811119
:101060003AC082E0E816F10489F183E0E816F10461
:1010700041F081E0E816F10429F5173F29F485E0F5
:1010800004C087E0073F09F084E08983809126044B
:101090008430C1F480910D018F708093E90050E09D
:1010A00040E064E070E0CE0101960E94D704811117
:1010B00009C08091E80085FD05C08091E8008E7729
:1010C0008093E8002496E7E00C94472C87EFD81231
:1010D000DBCF86E0DACF12951F701983D7CF80E07F
:1010E0000895F894E82FE295EF70F0E031A1282FF1
:1010F0002F7081E090E001C0880F2A95EAF7982FC1
:101100009095932391A392A1892B82A3789408951B
:101110009091AF0292FF06C0282F28712830F9F471
:10112000877F846093FF06C0282F28712831F1F44F
:10113000877E84612091B00220FF06C0382F38716D
:101140003830D9F4877F816021FF06C0282F2871AD
:101150002831D1F4877E816194FD877E0895282F00
:1011600024712430F9F68B7F8860DCCF282F24711E
:10117000243101F78B7E8861DDCF382F317131301A
:1011800019F78E7F8860E0CF282F2171213121F758
:101190008E7E8861E1CF82389105B9F1B0F4813358
:1011A000910509F47DC048F48932910509F46DC0B8
:1011B0008A32910509F47BC008958533910509F4BD
:1011C0005FC08933910509F10895833E9105D9F1F6
:1011D00038F4803E910529F1823E910579F1089518
:1011E000863E9105D9F1873E910509F43EC0843EC3
:1011F000910541F52091B00221FF24C08091AF02FA
:1012000084FD19C087EE90E008952091AF0223700D
:1012100009F05AC02091B00223FF14C089E290E087
:1012200008952091AF0220FD38C03091B00230FF08
:1012300009C024FF43C090E080E008952091AF02F0
:1012400022FDF7CF08952091AF0222FD3AC03091E0
:10125000B00230FD39C024FFF5CFEDCF2091AF02B1
:1012600023FFF0CF24FDE7CFCDCF2091AF0223FDA8
:101270002EC03091B00231FFEECF84EE90E00895A1
:101280002091AF0225FFDECFC9CF2091AF0225FD0F
:1012900021C02091B00223FFD5CF89E390E0D2CFC7
:1012A0002091AF0226FFCECF8AE290E008952091F0
:1012B000AF0226FFC7CF81E390E0089583EE90E070
:1012C000089582EE90E0089580EE90E0089586EE15
:1012D00090E0089585E390E008951F93CF93DF9306
:1012E0000E94CB08EC01C11580E5D807F0F5C115C7
:1012F00080E4D80708F09CC0C03ED10520F5CD3C65
:10130000D10508F082C0C83AD10578F4C53AD105B4
:1013100008F073C0C130D10519F1209709F1C4302C
:10132000D105F0F4D0E0C0E01BC0C33CD105D0F73C
:10133000C85AD0E0CC0FDD1FC65DDE4F0990D881C2
:10134000C02DD4640DC0C11580E2D80708F0D1C00B
:10135000C11581E0D80708F05AC0C83ED10510F782
:10136000CE01DF91CF911F910895C03682E5D80755
:1013700018F5C03482E5D80708F06BC0C03282E5AA
:10138000D80708F05FC0C11582E5D80708F497C0F8
:101390002C2F2695269580E2289F900111248C2FD2
:1013A0008370C1E0D0E002C0CC0FDD1F8A95E2F768
:1013B000C22BD32BDD68D4CFC03A82E5D80760F4C6
:1013C000C03882E5D80708F459C0CF71D0E0DC2FCF
:1013D000CC27C46FD06AC4CFC03C82E5D80708F4DC
:1013E00062C0C03E82E5D80708F09CCFDC2FCC2736
:1013F000CC27DF71C06FD06AB3CFC55AD0E0C95DCA
:10140000DE4FC881D0E0D064ABCFD065A9CF8D2F9F
:101410000E948808182FCE0199270E94CB08C12F5F
:10142000D0E0DC2FCC27CC27DF71C82BD92B98CF6D
:10143000CE0199270E94CB08CC27DF70C82BD92B6F
:10144000D06A8ECFCF71D0E0DC2FCC27C16FD06AAD
:1014500087CF2C2F26952695277080E2289F900114
:1014600011248C2F8370C1E0D0E002C0CC0FDD1FAF
:101470008A95E2F7C22BD32BDC6872CF2C2F2695EE
:101480002695277080E2289F900111248C2F83706D
:10149000C1E0D0E002C0CC0FDD1F8A95E2F7C22B7D
:1014A000D32BDA685DCF8C2F8F710E948808C82FEC
:1014B000D0E0DC2FCC27CC27DF71D06251CF8C2F2E
:1014C0008F710E94880855E0D695C7955A95E1F727
:1014D000CF70D0E0DC2FCC27282F30E084FF05C070
:1014E00044E0220F331F4A95E1F7C22BD32BD0697A
:1014F00037CF8D2F8F710E948808182FCE01992722
:101500000E94CB08C12FD0E0DC2FCC27CC27DF7185
:10151000C82BD92BD2CF809590910D029823909310
:101520000D0208958091690490913004981301C0D0
:1015300008958F5F8770FACFA82FA77023E0969544
:1015400087952A95E1F7FC01EE0FFF1FE80FF91FC1
:10155000E60FF71F50E040E080E0219130E00A2ED6
:1015600002C0369527950A94E2F721703327042E9E
:1015700001C0220F0A94EAF7822B4F5F5F4F43307E
:10158000510559F70895292F953068F48F3090F45C
:1015900090E06DED71E03FE0239F800D911D1124DF
:1015A0000E949C0A08952C5F223020F46AED71E0BD
:1015B00090E0F6CF80E00895262F277091E001C0DB
:1015C000990F2A95EAF723E0769567952A95E1F732
:1015D000FB01EE0FFF1FE60FF71FE40FF51F50E0B2
:1015E00040E0682F70E08191DF0111979B01042E8C
:1015F00002C0369527950A94E2F721702195282795
:10160000292328272C934F5F5F4F4330510559F70B
:101610000895282F862F953070F42F3058F4622FBC
:1016200070E02FE0929F600D711D11244DED51E08F
:101630000E94DC0A08959C5F9230E0F7622F70E010
:101640004AED51E0F5CF8093AE0208959091AE023D
:1016500021E030E0F90101C0EE0F8A95EAF7D901E7
:1016600002C0AA0FBB1F6A95E2F7EA2B01C0220F46
:101670004A95EAF7892F8E23E81305C0292B822F7C
:101680000E94230B089520952923F9CF21E030E013
:1016900001C0220F8A95EAF720958091AE0282233D
:1016A0000E94230B089590910202809589238093D4
:1016B0000202282F277069F4891759F09091B0021F
:1016C00092FF07C08695869586950E94460B1092DC
:1016D0000202089521E030E001C0220F8A95EAF766
:1016E0008091AE02822B0E94230B089580930E02FC
:1016F00008959B01BA01909126049430E1F48093FF
:10170000E9009FEF8091E800915085FD06C08AE6D0
:101710008A95F1F700C09111F5CF8091E80085FF1F
:101720000AC050E040E0C9010E94D7048091E8005F
:101730008E778093E800089543E050E0BC0184E098
:101740000E94790B0895CF93DF93EC0148E050E0BD
:10175000BC0181E00E94790B88E0FE01ACE1B4E0BD
:1017600001900D928A95E1F7DF91CF91089581E084
:101770008093E00080E28093D8001092C9008FE04F
:1017800097E20197F1F700C0000087E090EBDC01E1
:1017900080935A0590935B05A0935C05B0935D051B
:1017A00088E19CE00FB6F894A895809360000FBE86
:1017B00090936000FFCF8091060480FD0AC0E6EEA2
:1017C000F2E0118210821282339653E0E235F5077F
:1017D000C1F73F9A38B13F7728B120684FB7F894E6
:1017E00086EE92E0FC015191CF0168E028B957FFE5
:1017F00038B9550F000000C038B96A95B9F7F3E061
:1018000082359F0779F74FBF8FE292E00197F1F79A
:1018100000C000000895EF92FF920F931F93CF93A3
:10182000DF938C01C6EED2E0F12CE12CF80194811B
:101830006091080480910704F2E1EF16F104ECF4E2
:101840009923E9F09E01409109040E94E7062FEFD9
:10185000E21AF20A239684E2E816F10439F70E94AC
:10186000DB0BF801848190E00196817099278483D5
:10187000CDB7DEB7E6E00C94482C992319F39E010E
:1018800040E0E3CFB0E0A0E0E8E4FCE00C94262CDC
:10189000EC014C81042F10E09801D8010E94AF2D7B
:1018A0009B01AC010E947A2D4B015C01E0E2F0E06B
:1018B000E01BF10BA5E5B0E0AC019B010E947A2D85
:1018C0006B017C019F01DF010E94112C9B01AC0187
:1018D0000E94852D9B01AC01280D391D4A1D5B1D01
:1018E000C701B6010E948D2DF22E822F90E039E2C1
:1018F0003F1598F143E0249F9001112435952795D9
:10190000122F109596EEC92E92E0D92E00E085E5B3
:10191000E82EEF188E2D01FD8F2D9601412F60913D
:1019200008040E94E7060F5F53E0C50ED11C043285
:1019300089F70E94DB0B9C8181E0992319F090329A
:1019400019F48FEF8093250180912501890F8C83F5
:10195000CDB7DEB7ECE00C94422C25E530E0A901D0
:10196000481B590BCA019A01220F331F280F391F38
:1019700037FFC4CF2F5F3F4FC1CF0F931F93CF933C
:10198000DF93C6EED2E0FE011182108212823396FE
:1019900083E0E235F807C1F710E000E08091E4024F
:1019A000082E000C990B081719078CF1809124015F
:1019B000082E000C990B801791074CF19E01409165
:1019C000090460910804809107040E94E7060F5FF4
:1019D0001F4F23960432110509F70E94DB0B8091FB
:1019E00023019091E402980F9093E4022091240146
:1019F000280F20932401121614F493321CF08195C1
:101A000080932301DF91CF911F910F910895198247
:101A100018821A82DCCFB0E0A0E0E1E1FDE00C9496
:101A2000292CFC018281DD24DA9480FD02C0DD24B2
:101A3000D39406EE12E0D0E0C0E024E2B22EF8012A
:101A400011821082128294E0E92EF12CC12C809137
:101A5000E3028C0D8532C4F16B2D0E94CE2B892FB1
:101A6000082E000C990B8C179D0791F480910904A6
:101A70008E9DA0018F9D500D11245595479555952C
:101A80004795980160910804809107040E94E70639
:101A9000CD0CF1E0EF1AF108D1F621960D5F1F4F42
:101AA000C432D10561F60E94DB0B8091E30291E024
:101AB000D91210C081110CC083E28093E302CDB72C
:101AC000DEB7E9E00C94452C87FFCACF8C5DC8CF08
:101AD0008150F3CF90E00196BE010E94F02BEDCF34
:101AE000EF92FF921F93CF93DF93EC0186EEE82EE7
:101AF00082E0F82E10E08C819701409109046091FA
:101B00000804810F0E94E706195F83E0E80EF11CCC
:101B10001C3F89F70E94DB0B9A818C8190FF08C0E3
:101B20008F5F8C83DF91CF911F91FF90EF9008958D
:101B30008150F7CF9091060490FF0CC0E6EEF2E0E2
:101B4000818360834283339693E0E235F907C1F7DE
:101B50000E94DB0B0895A3E0B0E0E1EBFDE00C9404
:101B60002E2C8C018091E50281110AC09E012F5F0D
:101B70003F4F4FEF6FEF0E94E7068A818093E502A7
:101B8000F8016481613069F08091E50240E06623EC
:101B900061F040E0623011F44091E50280E060E0E5
:101BA00004C06091E50240E080E00E949A0DF801D7
:101BB000848190E0019663E070E00E94F02B8483C2
:101BC0002396E4E00C944A2CA3E0B0E0EAEEFDE0BA
:101BD0000C94302C9091060490FF0AC09E012F5F58
:101BE0003F4F0E94E7064B8169818A810E949A0DCE
:101BF0002396E2E00C944C2CCF93DF93EC01E6E0CB
:101C0000F4E0438162818C810E94E40D8C818F5FBE
:101C10008C83DF91CF910895CF93DF93EC01EC811A
:101C2000F0E0E65FFC4F4491E6E0F4E06281818100
:101C30000E94E40D8C818F5F8C83DF91CF9108959A
:101C4000CF93DF93C1E9D2E060E0CE010E94272D5F
:101C50002196C11584E0D807B9F7DF91CF91089597
:101C60000F931F93CF93DF93142F022F8430F0F440
:101C700061111CC094E0899FE0011124CF57DD4F12
:101C800082E090E0442311F090E080E0632F8C0F1D
:101C90009D1F0E94272D83E090E0112311F081E029
:101CA00090E0602F8C0F9D1F0E94272DDF91CF9118
:101CB0001F910F9108951F93CF93DF93122F8430BC
:101CC000E0F46530D0F44F30C0F4C42FD0E0CC0F36
:101CD000DD1F9EE1699FC00DD11D112496E9899FEA
:101CE000C00DD11D1124632FCE0189960E94272D8E
:101CF000612FCE018A960E94272DDF91CF911F91EF
:101D00000895B0E0A0E0E7E8FEE00C94232C86E321
:101D1000C82E85E0D82E98E3A92E95E0B92E2AE0AA
:101D2000E22E24E0F22ED0E0C0E08701612C7C2E70
:101D30001AC021E030E0C230D1051CF4F401259135
:101D40003491452D662D872D0E945B0E82E0880E12
:101D5000911C53948FE05812ECCF6394025E1F4F96
:101D600085E0681631F14801512CE3CFF601259149
:101D7000349141E060E0872D0E94300EF5012591FD
:101D8000349140E060E0872D0E94300E219684E07F
:101D9000C80ED11C84E0A80EB11C86E9E80EF11C27
:101DA000C430D10509F0C1CFCDB7DEB7EFE00C9458
:101DB0003F2CC230D105D4F221E030E041E060E0B8
:101DC000872D0E94300E21E030E0DBCFCF93C82F6B
:101DD0006FEF811163E285E290E00E94272D6FEFA3
:101DE000C11162E086E290E00E94272D6FEFC111E1
:101DF00064E287E290E00E94272DCF91089580E071
:101E00000E94E60E60E088E290E00E94272D0E948A
:101E1000810E0E94200E81E00E94E60E0895FF923E
:101E20000F931F93CF93DF93F42E843040F561110D
:101E300026C024E0829F800111240F571D4F82E0AD
:101E400090E0442311F090E080E0800F911F0E9409
:101E5000032DC82FD0E0DC2FCC2783E090E0FF20BB
:101E600011F081E090E0800F911F0E94032D9E01F0
:101E7000282BC901CDB7DEB7E5E00C94492C90E0E2
:101E800080E0F8CF0F931F93CF93DF93843030F52A
:101E9000653020F54F3010F5C42FD0E0CC0FDD1F9A
:101EA0002EE1629FC00DD11D112436E9839FC00D24
:101EB000D11D1124CE0189960E94032D082F10E018
:101EC000102F0027CE018A960E94032D9801282BFF
:101ED000C901DF91CF911F910F91089590E080E0AB
:101EE000F8CF462F672F753038F44F3060F48430C8
:101EF00050F40E94420F08957D3F41F4411103C008
:101F000041E0843048F090E080E008957C3FD9F7CC
:101F10004111F9CF8430B8F760E00E940F0F0895A7
:101F2000CF92DF92FF920F931F93CF93DF936C01B9
:101F30000091AE0280910E02082BC3E0D0E010E0C9
:101F4000FC2EC8010C2E02C0959587950A94E2F7E5
:101F500080FD0CC02197A0F7F12C8F2DDF91CF9140
:101F60001F910F91FF90DF90CF900895B6018C2FB5
:101F70000E94710F0E946D09019761F3EECFCF931C
:101F8000DF93EC010E94900FBE010E94710F0E942E
:101F90006D09DF91CF910895FC0124812223C1F0C6
:101FA000808191810E94BF0F92959F70963091F031
:101FB00058F4925F9F70923058F4803F19F030F4DB
:101FC000883E30F481E008959A5FF4CF843FD1F3E6
:101FD00080E00895883EB0F3813FD1F7F3CFA6E0CB
:101FE000B0E0E5EFFFE00C942F2C49835A83498140
:101FF0005A819923A1F0222391F0CA010E94900FE7
:10200000182F682F89819A810E94090B69817A8132
:10201000812F0E94710F2696E3E00C944B2CCA018D
:102020000E94C30A182FF2CF85E290E00E94032D90
:10203000833289F486E290E00E94032D823059F4C5
:1020400087E290E00E94032D91E0843209F090E055
:10205000892F8170089580E0FCCFB0E0A0E0E3E339
:10206000F0E10C94222CFC016280448081E08483A6
:10207000EAE0F3E07490E9E8F3E0E4910091090408
:102080000695015810E0000F111F012F1127C2E51E
:10209000D3E026EEC22E22E0D22E36E0832E34E0AC
:1020A000932EAA24AA94B12C55245A94E719EE2E03
:1020B000F12C82E0861530F08091070488838091AE
:1020C00008048983411016C01B821A8296014A8136
:1020D000698188810E94E706259683E0C80ED11C9D
:1020E0008C169D0631F70E94DB0BCDB7DEB7E0E121
:1020F0000C943E2C8B818823E9F081508B83859D45
:10210000C00111246C8170E00E94DC2BFB01FF27D1
:10211000E65FFC4F8491E82FE719E59DC00111248B
:10212000B7010E94DC2B80910904689FB001112443
:102130007A83CCCF0E94D92CB5010E94F02B801756
:10214000910724F682E0861588F40E94D92CB50107
:102150000E94F02B88830E94D92C20910804269598
:10216000622F70E00E94F02B280F29831A82809141
:102170000904893C20F088EC8C838B83A7CF8431C1
:10218000D8F784E1F9CFB0E0A0E0E9ECF0E10C94FD
:10219000262C49015A016B017C010E94D80684015A
:1021A000A4016A2D7B2D88E090E00E94392D9401D6
:1021B0004A2D5B2DB601C70100E20E94722C622FEE
:1021C00084E290E00E94272DCDB7DEB7ECE00C94BE
:1021D000422CA3E0B0E0EFEEF0E10C94232CF82EBB
:1021E000762EE42E622E9091060490FF2EC0E92FE9
:1021F000E695AE2FB0E0AD56BE4F8C918093E102D4
:102200009E7F923031F59E012F5F3F4F8F2D0E94B0
:10221000E7064B8169818A810E949A0DF09207043A
:1022200070920804E0920904662079F02091060477
:1022300060910A0470910B043F2D472D5E2D809113
:102240000C0490910D040E94C3102396EFE00C94AF
:102250003F2C823019F4E0900904E0CF863019F465
:10226000F0900704DBCF8930D9F38931B9F6E95111
:102270008E2F8170582EE695F0E0EB5FFC4FE491D5
:102280000E2F10E086EEC82E82E0D82EB12CA12CA5
:1022900094E2892E912CC501B4010E94DC2B8F2D74
:1022A000511013C0860F96014E2D672D0E94E70630
:1022B000A00EB11E83E0C80ED11C82E5C81683E0D3
:1022C000D80649F70E94DB0BA9CF861BECCFE6E0CE
:1022D000F4E043812CE0421B08F440E021E06281FD
:1022E00081810E94E9100895E6E0F4E043812CE04A
:1022F000420F08F44FEF21E0628181810E94E910D2
:102300000895E6E0F4E0628121E1621B08F460E0F8
:1023100021E0438181810E94E9100895E6E0F4E024
:10232000628121E1620F08F46FEF21E04381818136
:102330000E94E9100895E6E0F4E0818121E0438104
:10234000628188500E94E9100895E6E0F4E08181FE
:1023500021E043816281885F0E94E91008958091A5
:102360000A04882319F0815080930A0420910604FE
:1023700030910704409108045091090460910A04C7
:1023800070910B0480910C0490910D040E94C31075
:10239000089580910A04833018F48F5F80930A04B3
:1023A00020910604309107044091080450910904DB
:1023B00060910A0470910B0480910C0490910D04BB
:1023C0000E94C31008959091060490FF34C091704C
:1023D000811132C0926090930604662391F020919F
:1023E000060430910704409108045091090460915B
:1023F0000A0470910B0480910C0490910D040E94CA
:10240000C31060910604669570E04BE050E088E1EF
:1024100091E00E94E92C892BB1F01092E20281E058
:102420008093DE0220E040910904609108048091CD
:1024300007040E94E91008958B3210F09465CBCF09
:10244000880F982BC8CF81E08093E2020E94550646
:102450009093DC028093DB02E2CF809106048695A4
:10246000815009F48AE261E00E94E31108958091AD
:10247000060486958F5F8B3208F081E061E00E9450
:10248000E31108959091060490FF08C0969598175F
:1024900028F0961718F40E943712089561E00E9400
:1024A000E3110895E6E0F4E083E0808311828FEF8A
:1024B000828383831482758123E030E04FEF5FEFE6
:1024C00060E0868197810E94C31008959091B002C8
:1024D00092FB222720F9281779F080FB92F990933C
:1024E000B0026091AF027091B00284E090E00E946F
:1024F000452D82E00E94530B089590E080E00E94F9
:10250000112D863E9E4F19F40E941410089580E00C
:10251000089580910D0290910C02892B8093D00137
:1025200090910B02992391F0892B8093D00120E0A8
:1025300082ED91E0FC013191CF0131112F5FF1E08B
:10254000883D9F07B9F7211110920B0248E050E037
:1025500063E072E080ED91E00E94F62C892BA9F0F7
:1025600088E0E0EDF1E0A3E0B2E001900D928A9501
:10257000E1F7E0911004F0911104309731F00280FE
:10258000F381E02D80ED91E00995089510920D0200
:10259000E2EDF1E086E0DF011D928A95E9F790E037
:1025A00080E00E94A00690E080E00E947B061092EE
:1025B0000C020E9489120895AAE2B0E0E2EEF2E174
:1025C0000C942F2C88E294E02091F100DC012D93F3
:1025D000CD01B4E080339B07B9F7809129048330A3
:1025E00009F472C0B8F4813009F449C0823009F4AA
:1025F000B3C08091E80083FF96C280912804909137
:1026000029049A3008F08FC2E92FF0E0E054F24D2F
:102610000C94042C8A3009F48EC08B3009F471C0FC
:10262000893039F780912804813219F780912C0480
:1026300090912D04009711F00297D9F68091E8004F
:10264000877F8093E8008091E80082FF38C09091F6
:10265000F3008091F200029731F48091F100813013
:1026600011F0863021F48091F10080931B04809159
:10267000E8008B778093E8000E942B05BACF809109
:102680002804813A09F0B5CF8091E800877F8093D4
:10269000E80080912C0490912D04892B61F468E06E
:1026A0008CE194E070E00E94D7058091E8008B7780
:1026B0008093E8009ECF60E090E080E0F3CF8091CF
:1026C00026048111C0CF95CF80912804813A09F06A
:1026D00090CF80912C0490912D04892B09F089CF03
:1026E0008091E800877F8093E8008091E80080FF78
:1026F000FCCF809126018093F1008091E8008E77D5
:10270000B9CF80912804813209F073CF80912C04D5
:1027100090912D04892B09F06CCF8091E800877F80
:102720008093E8000E942B0580912A048093260163
:102730000E94C6125ECF80912804813209F059CFE1
:102740008091E800877F8093E8000E942B058091AC
:102750002B0480931A044DCF80912804813A09F00C
:1027600048CF8091E800877F8093E8008091E8005F
:1027700080FFFCCF80911A04BECF803899F0823858
:1027800009F0D1C180912C048F70873008F0CBC143
:102790008093E9008091EB0085FB882780F91092F7
:1027A000E90006C080912404909125049111826073
:1027B0009091E800977F9093E8008093F100109249
:1027C000F1008091E8008E77AAC1882309F498C1AE
:1027D000823009F0A8C180912A0481119BC18091A7
:1027E0002C048F702FEF280F263008F09CC18093A7
:1027F000E9002091EB0020FF8DC1933031F48091EE
:10280000EB0080628093EB0085C19091EB009061BA
:102810009093EB0021E030E001C0220F8A95EAF7A7
:102820002093EA001092EA008091EB008860EACFE2
:10283000811179C110912A041F778091E30080787B
:10284000812B8093E3008091E800877F8093E800EC
:102850000E942B058091E80080FFFCCF8091E3006F
:1028600080688093E30082E0111183E08093260466
:102870005AC18058823008F056C120912A04309104
:102880002B042C3DE3E03E07A1F583E08A838AE236
:1028900089834FB7F894DE01139620E03EE051E2C1
:1028A000E32FF0E050935700E49120FF03C0E2953E
:1028B000EF703F5FEF708E2F90E0EA30C0F0C79668
:1028C0008D939D932F5F243159F74FBF8091E8007E
:1028D000877F8093E8006AE270E0CE0101960E9453
:1028E000D7058091E8008B778093E8001CC1C096E3
:1028F000E7CF80912C0490912D04432F552743302E
:10290000510509F44AC078F54130510509F47AC0FF
:102910008FEB90E0EEE3F5E04230510509F003C1A2
:102920002091E800277F2093E80020912E04309129
:102930002F048217930708F49C0140E0211531050C
:1029400009F065C0411163C08091E80082FDC9CFE4
:1029500080912604882329F2853019F28091E800BD
:1029600083FFF2CFBECF4132510509F43CC0423261
:10297000510509F0D8C08330910508F0D4C0FC019E
:10298000EE0FFF1FEF53FE4F0190F081E02D8254B8
:102990009E4FDC018C9190E01AC033272130310525
:1029A000D1F02115310561F02230310509F0BBC0AD
:1029B000EFE0F6E0E4918E2F90E0EFE0F6E007C064
:1029C000EDE3F6E0E4918E2F90E0EDE3F6E0009782
:1029D00009F4A9C0A5CFE7E2F6E0E4918E2F90E0DC
:1029E000E7E2F6E0F4CF8330910508F09CC0880F51
:1029F000991FFC01E953FE4F0190F081E02D89E021
:102A000090E08ECF82E190E0EDEFF5E089CF80910C
:102A10002604882309F465CF853009F462CF8091BC
:102A2000E80083FD5ECF8091E80082FD8DCF80912C
:102A3000E80080FF83CF9091F3008091F200211590
:102A4000310519F08830910550F041E0089709F000
:102A500040E08091E8008E778093E8006FCF44914A
:102A60004093F1003196215031090196E8CF80382A
:102A700009F059C08091E800877F8093E800809139
:102A800027048093F1009DCE81114DC010912A043E
:102A9000123008F048C08091E800877F8093E800FA
:102AA000109327040E942B05112311F084E005C028
:102AB0008091E30087FDFACF81E08093260442E015
:102AC00061EC81E00E944A0542E261EC84E00E94F0
:102AD0004A0542E261EC82E00E944A0542E260EC73
:102AE00083E00E944A0542E361E885E00E944A05CE
:102AF00042E360E886E00E944A058091260413C004
:102B000080912A04813079F481E0933009F080E0EB
:102B1000809325041092E9008091E800877F8093DC
:102B2000E8000E942B058091E80083FF0AC0809195
:102B3000E800877F8093E8008091EB0080628093BB
:102B4000EB00AA96E3E00C944B2C0E94C6122FE7F0
:102B50008AE196E0215080409040E1F700C00000FB
:102B600088E19CE00FB6F894A895809360000FBEB2
:102B700090936000FFCF882321F00E948B0A0E946F
:102B800089120895882339F090910D02982B909323
:102B90000D020E9489120895882391F19CEF980FED
:102BA000913A80F4E2EDF1E028ED31E09191891362
:102BB00003C0DF0111971C922E173F07B9F70E943F
:102BC0008912089590E2980F983050F4877091E040
:102BD00001C0990F8A95EAF7892F0E948B0AEFCFDF
:102BE0009BE5980F933028F490E080E00E94A006C7
:102BF0000895885A8B3120F490E080E00E947B0693
:102C00000895CF93C82F8823B1F08CEF8C0F813AB1
:102C100000F5E2EDF1E088ED91E0DF012D91C217C2
:102C200061F08A179B07D1F76C2F80ED91E00E942D
:102C300061060E948912CF9108952191C21303C0A9
:102C4000DF0111971C928E179F07B9F70E94891216
:102C5000EBCF80E28C0F883068F4C77021E030E061
:102C600001C0220FCA95EAF780910D02822B809352
:102C70000D02DFCFEBE5EC0FE33040F4F0E0E95D6F
:102C8000FE4F808190E00E94A006D5CFC85ACB317C
:102C900090F6EC2FF0E0EE0FFF1FE65DFE4F808117
:102CA00091810E947B06C7CF1F93CF93DF93182F8C
:102CB000D0E0C0E0893311F4C0E5D0E0812F0E945C
:102CC0000116209739F4812F0E94CC15DF91CF9106
:102CD0001F9108958FEC97E00197F1F700C0000075
:102CE0002197EFCF0F931F93CF93DF93C62FD42F4E
:102CF000022FFC0185818823A9F060936C040E9457
:102D0000550690936B0480936A04C77081E001C0FC
:102D1000880FCA95EAF70E94C215DF91CF911F91E3
:102D20000F91089580916C04681332C080916A04F9
:102D300090916B040E943A06883C910548F510E298
:102D40001D0FCD17B9F080E28C0F883040F4C770AA
:102D500081E001C0880FCA95EAF70E94BB151830C0
:102D600048F481E09D2F977001C0880F9A95EAF78B
:102D70000E94C215802F0E945416183070F6D7702A
:102D800081E001C0880FDA95EAF70E94BB15C5CF34
:102D9000C77081E001C0880FCA95EAF7F6CFA8E0B6
:102DA000B0E0E5EDF6E10C94222C7C01DC011496F8
:102DB0008C911497882309F4B6C021E04C911196A8
:102DC0005C91119712966C91129713967C911397C0
:102DD00015969C910E94EF0F8C01F7019581992324
:102DE00009F434C1980137572038310510F00C949C
:102DF000131F003108F087C08FEF93E00E94032D6E
:102E0000811181C051E9A52E52E0B52E011148C0B3
:102E1000FE01339686E0DF011D928A95E9F74AE0CC
:102E2000442E85010F5F1F4FC5010E94032D89832A
:102E30001A82882309F467C0813009F078C06501DF
:102E4000B2E0CB0ED11CC8010E94032D8A838823D7
:102E500009F459C09FEF980F933080F5E3E0AE0E70
:102E6000B11CC6010E94032D8B83882309F44BC03B
:102E70001C828E010F5F1F4FD8012C91222389F2F3
:102E8000213009F08EC011969C91119712968C9169
:102E9000913009F04EC00E5F1F4F0E9454164FC074
:102EA000A114F4E0BF0679F1C5010E94032D811140
:102EB00001C001502FEFA21AB20AA8CF56018430E8
:102EC000C1F602E010E05601FFEFAF1ABF0AC601DB
:102ED0000E94032DE1E0F0E0EC0FFD1FE00FF11F79
:102EE0008083882381F08C3741F4E2E0F0E0EC0F3E
:102EF000FD1FE00FF11F1082BCCF0F5F1F4F650158
:102F00000730110501F780910202877061F0D70147
:102F100015968C91882339F08091B00282FF03C00E
:102F200082E00E94530B2896E0E10C943E2C58015D
:102F3000A0CF923039F40E5F1F4F0E9401160F5F31
:102F40001F4F9ACF933029F40E5F1F4F0E94CC156C
:102F5000F6CF943019F00F5F1F4FF1CF0E5F1F4F68
:102F600030E020E0B8016F5F7F4FF801418180536E
:102F7000990B8A30910550F02150310900F38FEC04
:102F800097E00197F1F700C00000F6CF429EF001F4
:102F9000439EF00D11249C012E0F3F1F842F8B01A7
:102FA000E1CFE22FF0E0E059FE4F5490822F86955A
:102FB0008695869590E0FC01E05AFE4F649027705C
:102FC000712C022E02C0759467940A94E2F7A1E076
:102FD0006A227724FC01E05BFE4F8490912C022E44
:102FE00002C0959487940A94E2F7B1E08B22992469
:102FF000FC01E05CFE4FC490D12C02C0D594C79474
:103000002A95E2F7E1E0CE22DD246114710419F083
:1030100081EE0E9401168114910419F086EE0E943F
:103020000116852D0E9454168114910419F086EE24
:103030000E94CC156114710419F081EE0E94CC1528
:10304000C114D10409F47BCF8CE227CF0115FEE730
:103050001F0709F43FC001302EE71207D9F10338EA
:1030600031E7130708F0BFC0033761E7160708F020
:10307000E6C1043671E7170708F062C0073581E73B
:10308000180708F097C10535A1E71A0708F042C0F4
:103090000B34B1E71B0708F070C10330E1E71E07EE
:1030A00008F015C1F801E851FC47E730F10590F44C
:1030B000E653F24D0C94042C9091C402991F992769
:1030C000991F8091C5028770880F41E069E5892BBF
:1030D0000E945B03D70115968C91882309F48BC657
:1030E00010926C04C8019057839708F06EC684E074
:1030F00090E00E94112D9093B0028093AF02F801EE
:10310000E150F047E232F10508F06EC2EF52F24DA5
:103110000C94042C0535F1E71F0709F43BC1063573
:1031200021E7120709F0BECF992309F4ECCE809174
:10313000C302982F9F70993008F0E5CE9F5F34C18D
:10314000013731E71307A8F5063661E7160708F0DF
:103150004EC1043671E7170709F437C1053681E718
:10316000180709F09FCF992309F4CDCE2091C3020F
:10317000822F859585958595859586300CF0C3CEF3
:1031800091E0980F9295907F959595959595959549
:10319000392F3295307F2F70232B2093C3021816BE
:1031A0000CF0B1CE97FFAFCE8295807F922F9F70AB
:1031B000FDC00137100709F42AC10237B1E71B0728
:1031C00009F070CF992309F49ECE8091C402982F04
:1031D0009F779F3709F497CE933708F02EC1935FFE
:1031E0009F77807828C10938E1E71E0709F47BC181
:1031F000C8F5053821E7120709F451C1D8F403389E
:1032000061E7160709F42EC1043871E7170709F0C2
:1032100049CF992309F477CE2091C402322F331F6E
:103220003327331F9091C502892F8770880F832B16
:103230008F5F28C18091C4022091C5020738A1E7A1
:103240001A0709F43CC108F044C140E091114FE76E
:10325000881F8827881F2770220F60E4822B0E9416
:103260005B0351CE0C38E1E71E0709F458C180F426
:103270000A3821E7120709F444C10B3831E7130774
:1032800009F010CF8FEF911181E08093C2023BCE05
:103290000E3861E7160709F477C108F460C10F38EA
:1032A00081E7180709F0FECE8091C402282F221F63
:1032B0002227221F8091C5028770880F822B6FEF13
:1032C0007FE1992309F46FC10E946C031CCE8091A9
:1032D000C402282F221F2227221F4091C5024770B7
:1032E000440F422B8F772DEF200F30E0D901AC5ED9
:1032F000BD4F6D01992341F11091C302912F9F7031
:1033000015951595159515951350BCE09B9F100DBF
:103310001124100F212F2F774069E0916D04F09157
:103320006E04082F63E070E08DE694E00995F601E5
:10333000E85BFF4F80818F5F8083F60180818F3F44
:1033400009F0E1CD1083DFCD2C91FD01E85BFF4F4B
:103350009081915090839111D6CD2F774068E09164
:103360006D04F0916E04082F63E070E08DE694E048
:1033700009958FEFF6018083C6CD992309F4C3CD5B
:103380000B54E02FEF700091C302007F0E2B0093CF
:10339000C302B9CD992309F4B6CD8091C302982F09
:1033A0009F7009F4B0CD915F9F70807F892B8093CF
:1033B000C302A9CD992309F4A6CD0D55E02FE295BE
:1033C000E07F0091C3020F70E1CF992309F49BCDF8
:1033D0008091C302982F95959595959595959B3FCE
:1033E0000CF491CD915F9295907F8F70DFCF9923F0
:1033F00009F489CD0656ECE00E9FE02D1124EF77FD
:103400000091C40200780E2B0093C4027CCD992356
:1034100009F479CD8091C402982F9F7709F473CD78
:1034200080789F3721F485678093C4026CCD9D30EE
:10343000D8F39D509F77892BF7CF8F67F5CF9923CE
:1034400009F461CD03578091C40200FB87F9809392
:10345000C402069507708091C502887F082B0093EF
:10346000C50251CD992309F44ECD2091C402322FCB
:10347000331F3327331F9091C502892F8770880F20
:10348000832B815F382F3F7080FB27F92093C40284
:10349000832F8695987F982B9093C50234CD9923DE
:1034A00009F431CD9091C402991F9927991F8091F9
:1034B000C5028770880F40E06BE7892BD0CE40E0D3
:1034C00091114FE7881F8827881F2770220F61E41A
:1034D000C5CE40E091114FE7881F8827881F2770CD
:1034E000220F62E4BBCE40E091114FE79091C402FD
:1034F000991F9927991F8091C5028770880F63E4EF
:10350000DCCF40E091114FE79091C402991F9927B9
:10351000991F8091C5028770880F64E4CECF9923EC
:1035200009F4F1CC9091C502292F26952695269570
:103530002F7081E0820F8F70880F880F880F977827
:10354000892B8093C502982F987709F0DCCC220F45
:10355000220F220F8778822B8093C502D4CC992327
:1035600009F4D1CC8091C502982F987709F4CBCC7F
:10357000982F969596959695915F9F70990F990FB4
:10358000990F8778892BE8CF8091C402282F221FBA
:103590002227221F8091C5028770880F822B60E04E
:1035A00070EE911191CE70E060E08ECE26E241EE99
:1035B00061EEC7010E947216A6CC27E245EE65EEC9
:1035C000F8CF26E241EE60EEF4CF27E245EE64EE5E
:1035D000F0CF26E241EE62EEECCF27E245EE66EE5A
:1035E000E8CF28E241E0EBCF8091AF028160809389
:1035F000AF0295C08091B00288608093B0028FC006
:103600008091AF028260F3CF8091AF028460EFCFF0
:103610008091AF028860EBCF8091B0028160EDCFE6
:103620008091B0028260E9CF8091AF028061DFCFEC
:103630008091AF028062DBCF8091AF028064D7CFF0
:103640000E94C6128091AF028068D1CF8091AF02F4
:103650008C60CDCF8091B0028360CFCF8091AF02DC
:103660008E7FC5CF8091B002877FC7CF8091AF0298
:103670008D7FBDCF8091AF028B7FB9CF8091AF029C
:10368000877FB5CF8091B0028E7FB7CF8091B00297
:103690008D7FB3CF8091AF028F7EA9CF8091AF0293
:1036A0008F7DA5CF8091AF028F7BA1CF0E94C612E4
:1036B0008091AF028F779BCF8091AF02837F97CFAE
:1036C0008091B0028C7F99CF8091AF0282FB9927C5
:1036D00090F921E0922790FB82F990FB83F987CF44
:1036E0008091B002982F909591708E7F892B90FBDE
:1036F00081F983CF9091AF02892F8F7B96FF8064F1
:1037000076CF0E94C6129091AF02892F97FB87F95E
:1037100080586DCF61E08EE090E00E94272D60918F
:10372000AF027091B00284E090E00E94452D0E94AB
:10373000C612E9CB60E0EFCF9091AF02892F8F7E68
:1037400094FF806154CF9091AF02892F8E7F90FFBC
:1037500081604DCF9091B002892F877F93FF886061
:103760004CCF85E352C380910D028272F801E05282
:10377000F847E531F10508F07DC0ED50F24D0C94AD
:10378000042C8091060480FF19C0282F2E7F2093DF
:103790000604309107044091080450910904609197
:1037A0000A0470910B0480910C0490910D040E9406
:1037B000C3101092E2020E94DB0BA5CB81608093C4
:1037C000060461E086950E94E3119DCB4DE252E133
:1037D00067E372E10E94D20696CB47E352E16DE2C5
:1037E00072E1F8CF4BE951E165EA71E1F3CF45EAC7
:1037F00051E16BE971E1EECF41E851E16EE871E131
:10380000E9CF4EE851E161E871E1E4CF47E651E1EB
:1038100064E771E1DFCF44E751E167E671E1DACFB8
:103820004FEA51E169EC71E1D5CF49EC51E16FEA22
:1038300071E1D0CF61E081E0C6CF65E082E00E9417
:10384000421261CB68E086E0FACF6EE089E0F7CF04
:1038500064E18FE0F4CF67E185E1F1CF61E088E1D9
:10386000B2CF62E289E1EBCF61E083E2ACCF6AE202
:1038700085E2E5CF0737BCE71B0709F45FC00837CF
:10388000ECE71E0709F45EC0F70185810081118114
:10389000882309F487C0C8010E94900FD82E682F92
:1038A000C8010E94090BB8018D2D0E94710F0E9462
:1038B0006D098C01882ED7011596AC901597169638
:1038C0009C9092943FE09322809102028770F1F0E5
:1038D000CA2CAA20E1F0812F807F803451F080E251
:1038E000800F883098F0911004C0812F807E803244
:1038F00069F08091B00282FF09C082E00E94530B00
:10390000809102028770CC24C3948111C12CB12E06
:10391000B2942FE0B222BBE0BB1508F4A8C0EB2D97
:10392000F0E0E85FF14D0C94042C81E00E946A0BFA
:1039300043E062E081E00E94260BE5CA81E00E943C
:10394000460BF6CF82E0FBCF0B357CE7170741F142
:103950000C358CE71807D1F00A351C4709F094CFD5
:1039600081E01BC00E94C612AFE7BAE1E6E0A150B9
:10397000B040E040E1F700C000000E94B70B6FEFDD
:103980007FEF90E080E00E94452D1DC28091B00243
:1039900082FB882780F991E089270E94661274CF04
:1039A00080E0FBCFC8010E94C30AD82E7CCFE12F54
:1039B000EF70DE2E107F19F0D29490EFD922AA205A
:1039C000B9F0DD2069F080E2800F883010F08110BE
:1039D00009C080910D02D82AD0920D020E9489124E
:1039E000802F43C080910C02D82AD0920C02F6CFCF
:1039F000802F0E94CC15DD20D1F1005E083010F040
:103A0000811004C08D2D0E948B0A06C0D094809135
:103A10000C02D822D0920C020E94891228C0F12FE9
:103A2000FF70DF2E107F103219F0D29480EFD82271
:103A3000882059F021E0821609F47AC0AA2009F4FE
:103A400086C0992009F448C0CBCF8091B00282FD96
:103A50003FC0AA20B9F1DD2039F080910D02D82AAB
:103A6000D0920D020E94891280E00E9401166B2DF7
:103A70006850770B6430710510F40E94C506CC20A5
:103A8000B1F08091020280FD12C0D70115961C9200
:103A90008695869586950E946A0BC7010E94CF166F
:103AA000809102028695869586950E94460B20E0BD
:103AB000F7014081518162817381848195810E94E7
:103AC000EF0F31CA80E00E94CC15DD2081F29ACF41
:103AD000AA20A1F0911004C08D2D0E94C215C7CF5D
:103AE00031E09312C4CF80910B029D2D9823D916FB
:103AF00009F4BDCFD82AD0920B02B9CF9110B7CF1D
:103B00008D2D0E94BB1590910B028D2D892329F0DC
:103B10008D2D8095892380930B028091D9019D2D55
:103B2000982309F4A4CFD094D822D092D9019FCF62
:103B3000AA2029F065E0691508F499CFCDCF74E08B
:103B4000791508F494CF8D2D0E94BB1590CF992044
:103B5000D1F389E3881209C09FEFA3EFB1E0915040
:103B6000A040B040E1F700C00000802F0E94CC15BB
:103B70007ECF812F86958695837061F0813009F024
:103B800076CFC8019370A11002C080E090E00E943F
:103B90007B066DCFC8019370A11002C080E090E059
:103BA0000E94A00664CF812F837089F5A1105FCF9A
:103BB000402F429546954770440F440F802F8F70D9
:103BC000042E01C0880F0A94EAF7202F207104FF09
:103BD00007C02FE030E001C0220F4A95EAF7209598
:103BE000169516951370123069F050F430910E024C
:103BF000113029F0822B83230E94760B38CF832B40
:103C0000822BFACF282B80910E028227F5CF869542
:103C1000AA2011F0812F8170882309F428CF402F2A
:103C2000429546954770440F440F802F8F70042EA5
:103C300001C0880F0A94EAF7202F207104FF07C003
:103C40002FE030E001C0220F4A95EAF72095169543
:103C500016951370123069F050F43091AE021130A5
:103C600029F0822B83230E94230B01CF832B822BED
:103C7000FACF282B8091AE028227F5CF1F70AA20A1
:103C800029F0812F0E946A0B802F27CF802F0E945E
:103C9000BB15812F0E94460BEACE802FE2EF8E16D5
:103CA000B1F1E81570F0F0EF8F16D1F021EF821628
:103CB00091F0AA2009F45CC0911092CE812F8F71EF
:103CC0002AC033EF831651F164EF8612F2CF809150
:103CD000B00282FD2FC0812F8F71AA20D9F21BC0A4
:103CE000AA2081F074E0791508F4C1CE1F7181E03B
:103CF00090E0012E01C0880F0A94EAF79091AE027D
:103D00008927B1CF85E0891508F4B1CEEFCF812F97
:103D10008F71A110BFCF0E946A0BA9CE80E0AA20AC
:103D200009F4A1CF1F7181E0012E01C0880F0A9410
:103D3000EAF799CFAA2089F01F71812F0E946A0BA0
:103D40008091B00282FF07C0A8E01A9FC001112431
:103D5000836080930202812FDECF81E00E94530BAB
:103D6000B1E0B91508F083CE82E00E94530B7FCEFC
:103D7000992059F0893309F0F8CEEFEFF3EF21E005
:103D8000E150F0402040E1F7EECE812F8F7182CFDD
:103D90000737FCE71F0709F4C8CD82E008372CE796
:103DA000120709F4C3CD0330FCE71F0709F4E7CD80
:103DB00008F0CACD01153CE7130709F4D3CD013053
:103DC0001C4709F061CD0E94A51506313CE7130799
:103DD000F9F680910D028A7A91E009F490E09093CF
:103DE000D80169E2811165E380ED91E00E946106EE
:103DF0000E94891288C806316CE7160709F0B3CC17
:103E00008091D8018111ADCC89E2E2EDF1E028ED9D
:103E100031E09191891303C0DF0111971C922E1795
:103E20003F07B9F7E5CF01157EE7170709F444C945
:103E300001308EE7180709F012C99091C402991F4A
:103E40009927991F8091C5028770880F4FE73EC957
:103E5000CF93DF9380910102807F09F04DC0809164
:103E60000002882309F448C0E091690450913004AD
:103E7000C091FC01D091FB016091FD017091FE01A8
:103E800047E05E17C9F18E2F90E0E49FF001112406
:103E9000EF5CFB4F2481222391F1489FF001499F61
:103EA000F00D1124DF01AF5CBB4F11962C911197DF
:103EB0002C1325C02C912D1322C015962C911597EB
:103EC00021111DC012962D913C91261B370B283CC9
:103ED0003105A8F4809101028F7080618093010206
:103EE000E95CFB4F80818F70806180838BEF91E074
:103EF0000E94CF160E94920ADF91CF910895FC0193
:103F00003196E770BECFA4E1B0E0E9E8FFE10C94A0
:103F1000262C8C0186E0F801DE011F9601900D929F
:103F20008A95E1F7F8018481E5809BEFA92E91E065
:103F3000B92E9091FF01911128C0882319F1EE202C
:103F4000F1F0C8010E94CC0FF82E8823C1F087E061
:103F5000F801D50101900D928A95E1F78091FF015A
:103F6000813031F48091FB019091FC010E94BF0FE0
:103F70000E94281F8F2D6496ECE00C94422CC801FF
:103F80000E94CF16FF24F394F5CFD080C1808280A9
:103F90009380F09000022091FD013091FE01A40178
:103FA000421B530BFF2009F4D9C0483C510508F0CF
:103FB00092C08823F9F29091FC0180910102282F90
:103FC000207F09F056C0C91214C09091FB01D9128C
:103FD00010C0E11048C08F708061809301028BEFA8
:103FE00091E00E94CF1680910102F8018683F12CA6
:103FF000C1CFE11038C06C2D8D2D0E9485036C2D32
:104000008D2D0E948503E82E8111F1CFDF86C88AAD
:104010008F8598890E94BF0F292F22952F702430F9
:1040200058F49F70223088F0992399F0F801968116
:10403000907F79F4FE2C9ECF2A5F2F70223068F09B
:10404000C8010E94CF16EF2CF5CF992311F08823D9
:1040500089F3805E883070F3F3CF803F58F3815F3F
:10406000833070F7E7CF8091010281608093010275
:10407000BECFC91207C09091FB01D91203C0EE2038
:1040800009F48DC0C8010E94CC0F882309F477CFB2
:10409000EE2009F474CF80910102803288F02091E3
:1040A000FB013091FC01398728879B868A86909195
:1040B000FF019C871D868E87CE0108960E94CF1631
:1040C00087E0F801ABEFB1E001900D928A95E1F73E
:1040D0000E94281F57CF90910102292F207F51F471
:1040E0008BEF91E00E94CF1687E0F50111928A953F
:1040F000E9F77DCF882309F43DCF8091FC018C1135
:1041000010C08091FB01D8120CC0E1100AC0968348
:10411000C8010E94CF1687E0F50111928A95E9F750
:1041200029CFC8010E94CC0F882309F428CFEE20A4
:1041300009F425CF80910102803210F22091FB0119
:104140003091FC013A8329839C828B829091FF01FC
:104150009D831E828F83CE010196B0CF483C5105CE
:10416000D0F6882309F40ECFFE2CEE2009F407CFF9
:104170008091FC018C1120C08091FB01D8121CC0E1
:104180008091010280FD0FC0982F907F61F086839F
:10419000903F31F0982F907F905F8F70892B8683AE
:1041A000C8010E94CF1687E0F801ABEFB1E00190A3
:1041B0000D928A95E1F7DECEC8010E94CC0F8111E5
:1041C0007FCF80910102816080930102C8010E942B
:1041D000CF16D0CEABE1B0E0E0EFF0E20C942E2CA5
:1041E0004E8B5F8B688F798F8A8F9B8F192F9111E0
:1041F00010920C021D8A86E0FE017696DE011F9663
:1042000001900D928A95E1F70A8D002341F021E09B
:104210004F85588969897A89C8010E94EF0F0B8BF5
:104220001C8B87E0FE013F96DE01189601900D92EF
:104230008A95E1F7CE0108960E94831F81110CC078
:1042400087E0FE013896DE01119601900D928A9565
:10425000E1F78C8581110BC017E080916904909182
:104260003004891331C06B96E4E00C944A2C209101
:10427000300430E0C90101968770992740916904A4
:104280004817190699F097E0929FD001939FB00DBF
:104290001124AF5CBB4FFE01319601900D929A95AF
:1042A000E1F7809330040E94920AD6CF0E94C61292
:1042B000109230041092690487E0EBEFF1E0DF0127
:1042C0001D928A95E9F7C8CF819FC00111248F5CA8
:1042D0009B4F0E94831F882331F28091690490E0F4
:1042E00001968770992780936904B7CFA6E0B0E064
:1042F000ECE7F1E20C942E2C0E9455068C01809183
:104300000F02909110028017910781F019821A8292
:104310000E945506682F49815A81792F80E090E0EC
:104320000E94EA201093100200930F022696E4E008
:104330000C944A2CAAE0B0E0E0EAF1E20C94262CBE
:104340008E010F5F1F4F8AE0F80111928A95E9F7FD
:1043500090E6E92E91E0F92E6801AA24A394B12CED
:10436000F70181917F018F3F09F446C0F894E82F4F
:10437000E295EF70F0E021A18F70A50102C0440F1B
:10438000551F8A95E2F7CA01922F982B91A392A10B
:104390008095892382A3789400C0E5E6F1E021E0CE
:1043A00030E0912C812C41914F3F09F467C0A42F3C
:1043B000A295AF70B0E090968C9190E04F7002C0E3
:1043C000959587954A95E2F780FD58C0C901882ADE
:1043D000992A220F331F51E0E437F50721F7F7013F
:1043E000319780818F3F11F00E94710880E58A9596
:1043F000F1F7F60191828082F2E0CF0ED11C45E602
:10440000E41641E0F40609F0ABCF4AE050E0B80111
:1044100084EA92E00E94F62C892B99F18AE0F80157
:10442000A4EAB2E001900D928A95E1F781E08093D1
:1044300013020E94550690931202809311028091FC
:104440001102909112020E943A060597F0F04AE09C
:1044500050E064EA72E08EEC92E00E94F62C892B28
:10446000C9F08AE0E4EAF2E0AEECB2E001900D922D
:104470008A95E1F781E01092130208C090E080E095
:10448000A6CF809113028111DACF80E02A96ECE06A
:104490000C94422C80E0EFCFA8E0B0E0E2E5F2E23D
:1044A0000C94302C66EE7EEF90E080E00E94452D6B
:1044B00060E082E090E00E94272D60E083E090E0E1
:1044C0000E94272D10920E0260E074E184E090E0DB
:1044D0000E94452D60E086E090E00E94272D6FEF5E
:1044E00087E090E00E94272D40E050E0BA0188E08C
:1044F00090E00E94392D60E084E290E00E94272D38
:1045000060E087E190E00E94272D60E08CE090E081
:104510000E94272D60E08DE090E00E94272D1982F7
:104520001A821B821C821D821E821F82188648E00E
:1045300050E068E170E0CE0101960E94172D40E046
:1045400050E0BA0180E290E00E94392D80E00E94A4
:10455000E60E0E94FF0E40E050E0BA018FE090E0CE
:104560000E94392D1092CA021092CB021092CC02F6
:104570001092CD0240E050E0BA0183E190E00E9449
:10458000392D2896E2E00C944C2C1F920F920FB616
:104590000F9211242F933F934F935F936F937F93C9
:1045A0008F939F93AF93BF93CF93DF93EF93FF933B
:1045B000D091E900DF708091EC00C82FC17080FDC0
:1045C000C0E81092E9008091F000877F8093F000AE
:1045D00078940E94DC121092E9008091F0008860CB
:1045E0008093F000CD2BCF70C093E900FF91EF9145
:1045F000DF91CF91BF91AF919F918F917F916F91FB
:104600005F914F913F912F910F900FBE0F901F9090
:1046100018951F920F920FB60F9211242F933F936C
:104620004F935F936F937F938F939F93AF93BF93BA
:10463000EF93FF938091E10082FF09C08091E20037
:1046400082FF05C08091E1008B7F8093E100809123
:10465000DA0080FF23C08091D80080FF1FC08091C6
:10466000DA008E7F8093DA008091D90019BC80FF38
:104670009AC082E089BD09B400FEFDCF81E080933D
:10468000260480911904811109C00E9487040E94A8
:104690007C058091E20084608093E2008091E100DB
:1046A00080FF17C08091E20080FF13C08091E2007C
:1046B0008E7F8093E2008091E20080618093E2002F
:1046C0008091D80080628093D80019BC85E08093E7
:1046D00026048091E10084FF2AC08091E20084FFDB
:1046E00026C019BC82E089BD89B5982F917080FFE2
:1046F000FBCF8091D8008F7D8093D8008091E1001E
:104700008F7E8093E1008091E2008F7E8093E200B3
:104710008091E20081608093E200809127048823E9
:1047200009F446C084E08093260480912604809199
:10473000E10083FF27C08091E20083FF23C08091C6
:10474000E100877F8093E10082E08093260410924D
:1047500027048091E1008E7F8093E1008091E20048
:104760008E7F8093E2008091E20080618093E2007E
:1047700042E060E080E00E944A058091F00088609D
:104780008093F000FF91EF91BF91AF919F918F9136
:104790007F916F915F914F913F912F910F900FBE3D
:1047A0000F901F901895109226041092190476CF3E
:1047B0008091E30087FD93E090932604B6CF789430
:1047C0001F921FB61F9211248F939F93AF93BF9395
:1047D0008091150490911604A0911704B0911804CB
:1047E0000196A11DB11D8093150490931604A0930A
:1047F0001704B0931804BF91AF919F918F911F90B0
:104800001FBE1F9018951F921FB61F9211248F93E1
:104810009F93AF93BF9380911404811113C0809133
:10482000150490911604A0911704B09118044196B4
:10483000A11DB11D8093150490931604A093170435
:10484000B0931804BF91AF919F918F911F901FBE9D
:104850001F901895CDB7DEB7EE970FB6F894DEBF70
:104860000FBECDBF85B7806885BF85B7806885BF1F
:1048700084E08093C3028FE78093C4028091C502D5
:10488000807880648093C502E4E1F2E08CE592E0F8
:104890002FEF2193DF01A95BBF4F1C928E179F075B
:1048A000C1F71092C1021092C2021092C802109277
:1048B000C70210929204109294041092930480EC18
:1048C0008093570585E994E09093590580935805A6
:1048D00010925605109255051092720410927104B0
:1048E000109274041092730410927604109275045E
:1048F000109278041092770410927A04109279043E
:1049000010927C0410927B0410927E0410927D041D
:104910001092800410927F041092820410928104FD
:1049200010928404109283041092860410928504DD
:10493000109288041092870410928C0410928B04B9
:1049400080E298E090936E0480936D0482EA97E091
:1049500090938E0480938D048EE797E090938A0461
:10496000809389048DE797E09093700480936F049F
:1049700084B7877F84BF0FB6F894A89580916000B4
:10498000886180936000109260000FBE80E890E024
:104990000FB6F89480936100909361000FBE8FE68C
:1049A00098E09093CF018093CE010E9487040E94EB
:1049B0007C058091E20084608093E200789480918D
:1049C00026048823A1F01091E9001F709091EC005B
:1049D000892F817090FD80E8182B1092E90080915A
:1049E000E80083FD0E94DC121F701093E90082E052
:1049F00084BD93E095BD9DE797BD80936E000E94B6
:104A00001410811102C00E94FF0E81E08093BF024A
:104A10006E98769A54985C9A87EC90E00197F1F73B
:104A200000C000002091BF0240EC52E0FA018E2F3E
:104A3000841B821708F455C000E611E095E6E92EC4
:104A400091E0F92ED8018D918D018F3F11F00E94D8
:104A50007108E016F106B1F705E611E0F801819161
:104A60008F018F3F11F00E947108F1E004371F079A
:104A7000A9F78AE0EEECF2E0DF01282F1D922A95DB
:104A8000E9F7E4EAF2E0DF011D928A95E9F70E9476
:104A90007D12811102C00E944C2282E090E00E94AF
:104AA000032D8093B20284E090E00E94112D909338
:104AB000B0028093AF020E949A21EFE5FAEE31979F
:104AC000F1F700C000000E949A218091CE0280FF81
:104AD00014C06FEF7FEF90E080E00E94452D0E94B0
:104AE000B70B8CB186FB882780F94C9904C090E005
:104AF000892B81939CCF92E0FBCF83E090E00E94D2
:104B0000032D0E94760B8091B102811173C00E9427
:104B10007D12811104C00E944C220E94521288E032
:104B200090E00E940B2D4B015C0184E290E00E941A
:104B3000032D282F30E040E050E060E070E080E09E
:104B400090E000E20E94572C282939294A295B2944
:104B500020930604309307044093080450930904FB
:104B600060930A0470930B0480930C0490930D04DB
:104B70002E7F89F50E94521288E090E00E940B2D52
:104B80006B017C0184E290E00E94032D282F30E02D
:104B900040E050E060E070E080E090E00E94572C40
:104BA000B22FA32FF42FE52F5B0197018601BC29BB
:104BB000A12BFE29E32BB0930604A0930704F093E6
:104BC0000804E093090460930A04B0920B048093F4
:104BD0000C0490930D040E94D8061092E20280917A
:104BE000060480FF04C060E086950E94E31181E026
:104BF0008093B10283E190E00E940B2D6093CA0282
:104C00007093CB028093CC029093CD026093D90233
:104C100084E091E0909311048093100408ED402EFD
:104C200002E0502E84E0682E712C8091260412E060
:104C3000853009F48FC00E949A21B3EBAB2EB2E00D
:104C4000BB2E1EEC812E12E0912ED401F501219194
:104C500031918D919D9142E0ED3BF40709F484C0C0
:104C600028173907A1F3312CD4010D911D914D0165
:104C7000F501C190D1905F01C016D10661F1C02647
:104C8000D126212CEE24E394F12CC6018E219F2104
:104C9000892BB9F029AE3AAE0E9455069CAF8BAF76
:104CA000F1E0FDAF91E098012E213F21232B09F483
:104CB00090E09EAF49AD5AAD6BAD7CAD8DAD0E941D
:104CC000EA202394EE0CFF1C2FE02212DECFF50128
:104CD000329711830083339445E03412C5CF0E948C
:104CE000490648C080912604843021F110921404B2
:104CF00048E150E080E40FB6F894A8954093600036
:104D00000FBE8093600083B7817F846083BF83B7C9
:104D1000816083BF7894889583B78E7F83BF0FB6F9
:104D2000F894A8958091600088618093600010924B
:104D300060000FBE80912504882361F00E949A21B3
:104D4000EEECF2E081919191892B09F0FCC44E16B2
:104D50005F06C1F780912604853009F4C3CF0E9415
:104D6000C6120E94C50667CF2817390709F07BCF06
:104D70000E9476218091E2028823D1F18091E102A4
:104D8000E0910604E695E81BE093DD02823009F02D
:104D900011C1F0E0EF5FFD4FE4910E2F10E0ECE069
:104DA000EE2EEEE0FE2E8091DE02882361F010925E
:104DB000DE020E9455069093DC028093DB02109283
:104DC000E0021092DF020E945506E091DB02F091B2
:104DD000DC028E1B9F0B8F3F9F4750F4E00FF11FAB
:104DE000F093DC02E093DB028BED92E0F701099592
:104DF00010E000E072E0372EEDEFBE2EAA24A3945F
:104E0000FCEF9F2EA3E08A2E8091BF02181708F4B2
:104E10003DC101110E944906E0918D04F0918E047C
:104E2000309719F08DE694E009959FB7F8940091BA
:104E3000560580915505081708F4B0C1081B9FBF9F
:104E4000F12CE12C10E043E0A42EB12CCC24C3942F
:104E5000D12C64E0262E33243394E016F10608F4B6
:104E6000A1C18091C7029091C8020E943A06209188
:104E7000C5022695269526952F702817190609F044
:104E800060F50E9455069093C8028093C7028091F6
:104E9000C202882311F19091C402991F9927991F8A
:104EA0008091C5028770880F4091C10261E0892B13
:104EB0000E945B038091C2029091C10287FF27C2CA
:104EC000A82FBB27A1950CF4B0959A171B060CF0E0
:104ED0001EC21092C1021092C2020E94C506909199
:104EE000C902891721F08093C9020E944906809166
:104EF00026048430E1F480910D018F708093E900E5
:104F00009091E80090FF13C090912604943079F4BA
:104F10008093E9009091F3008091F200892B39F0A1
:104F20008091E8008E778093E8000E94A60480912B
:104F30002604843009F4F3C185E880937A0080EA7E
:104F400080937B0081E480937C0080917A00806470
:104F500080937A0080917A0086FDFCCF00917800E2
:104F60009091790080917A008F7780937A00192F41
:104F700083E0159507958A95E1F78091DA02801B09
:104F8000990B0196039708F450CE902F4091D902C7
:104F90004111C3C3809107048093D8026091080433
:104FA000033008F0402F440F21E00E94E9100093E5
:104FB000DA023BCE863059F4F0E0E250FE4FE49145
:104FC0000E2F10E07CEFE72E7DE0F72EECCE89303F
:104FD00061F4E695F0E0E550FE4FE4910E2F10E00D
:104FE00060E7E62E6DE0F62EDECE8F3061F4E695BA
:104FF000F0E0E850FE4FE4910E2F10E05BE0E52E6C
:105000005DE0F52ED0CE853159F4F0E0EB50FE4F47
:10501000E4910E2F10E04DEBE42E4CE0F42EC3CEC5
:1050200008E210E092E4E92E9CE0F92E883109F4C0
:10503000BACE833249F4E3EFF1E0059114913BEAF3
:10504000E32E3DE0F32EAFCE8432C9F000ED17E041
:10505000B5E3EB2EB6E0FB2E853209F0A4CE8E2F01
:1050600063E00E94C22BE92FF0E0E051FE4FE49193
:105070000E2F10E02DE2E22E20E1F22E94CE04EF6E
:1050800011E08BE0E82E8CE0F82E8DCEC12ED12CD5
:10509000ECB1E6FBEE27E0F94C997EC080E08E2B68
:1050A000D601A054BD4FEC919E2F9370891709F43F
:1050B00071C0EE0FEE0FE82BEC93EF70F0E0EC58C0
:1050C000FE4FA60142545D4F7A018081DA019C9126
:1050D000890F8C9320E084303CF1F601E354FD4FBE
:1050E00080818F5F80830E9455061DA79EA6682F32
:1050F0008FA798AB89AAAAAA412F5CEF792F83E0EA
:1051000091E00E94EA200E9455061BAB9CAA682FE2
:105110008DAB9EAB8FAA18AE412F5CEF792F83E049
:1051200090E00E94EA2021E0F70180818D3F3CF56C
:10513000F601E354FD4F8081815080830E94550623
:1051400019A3BAA2682F8BA39CA33DA2AEA2412FA4
:105150005DEF792F82E091E00E94EA200E945506DF
:105160001FA3B8A6682F89A79AA73BA61CA6412F04
:105170005DEF792F82E090E00E94EA2021E0D701E4
:105180008C91082E000C990BB3010E94F02BF701B3
:105190008083022B1F5F38CE82E081CF209157059C
:1051A000020F4CCE8091550590E06091570570E05C
:1051B0000E94F02B2091580530915905280F391F76
:1051C000D9019C9080909204B7EFB915E8F4309221
:1051D000920420E040E0692D81E090E00E94A40369
:1051E000809292042FB7F8948091550590E0019633
:1051F0006091570570E00E94F02B809355052FBFFA
:105200005FEFE51AF50A29CE97FE52C0E4E08E164C
:1052100031F090928F04D0929404C0929304892D1F
:105220000E947F07813069F08823D1F08230A9F095
:10523000833099F010929204109294041092930487
:10524000D1CF8093920420E040E0692D81E090E08E
:105250000E94A40310929204C5CF80939204C2CFFF
:10526000F0EF9F16E1F027EF9212E4CF2091930424
:1052700030919404C901B5010E94DC2BFC01E35973
:10528000FB4F92A2C90101969093940480939304DA
:10529000209191044091900460918F04D9CF209285
:1052A000920490928F04D0929404C09293049ACF67
:1052B000882009F497CF2091930430919404C90178
:1052C000B5010E94DC2BAC01FC01E359FB4F92A21B
:1052D000C901019690939404809393044130510541
:1052E00089F04230510509F07DCF20919104409121
:1052F000900460918F040E94A403809192048430F2
:1053000091F670CF42E020E084126CCFF0CF890F8D
:1053100087FD03C08093C102E0CD8FE7FBCF83E020
:105320008093E9008091E80082FF06CE8091E8003A
:1053300090E085FF09C050E040E060E270E0CE01FF
:1053400001960E94010591E08091E8008B7780939F
:10535000E800992309F4F0CD8981EFEFE80FE531FA
:1053600080F4F0E0EC5EF14D0C94042C1A828CE099
:105370008B831BC08A81823009F4FBC128F4813001
:1053800061F08FEF898311C08330C1F08430C9F799
:105390001B821C821D821E8208C00E9449060E9438
:1053A0000A2C6B837C838D839E8340E250E0BE0198
:1053B0006F5F7F4F82E00E94790BBECD2B81822FE1
:1053C00090E0FE013196225F8530910570F7DC0197
:1053D000AA0FBB1FA253BD4F3C9111964C91438322
:1053E0003483019632962813EFCFDFCF8A81823043
:1053F00081F0853031F68091060480FF15C08091E0
:1054000006048E7F809306041092E2020E94DB0B5A
:10541000CCCF6B817C818D819E810E940A2C88E299
:1054200090E00E94272DC1CF81608093060460E048
:1054300086950E94E311B9CF4C816B818A810E94CD
:10544000420F9827892798279E838D83AECF2D8181
:105450003E813227232732274C816B818A810E942B
:105460005B0EA3CF0E94810EA0CF9A81923009F0EB
:105470007BC08830D9F1893009F463C08B818230D8
:1054800009F1A8F4813009F090CF8C81BFEF8B9F98
:10549000C00111246FEF70E00E94DC2B462F20E04A
:1054A00060910804809107040E94E9107ECF833048
:1054B000C9F0843009F079CF20E0409109046D8172
:1054C0008C81F2CF8C81882309F499CF80910604D6
:1054D00081608093060460E086950E94E31160E09D
:1054E0008C81A7CF8C8180930A045FCF8B8182301F
:1054F000E1F078F4813009F058CF80910904EFEFA2
:105500008E9FC00111246FEF70E00E94DC2B6C8332
:105510004CCF833099F0843009F047CF8091070455
:105520008C83809108048D8340CF8091060480FF96
:1055300003C086958C8339CF80E0FCCF80910A042C
:10554000F9CF20910604309107044091080450914E
:10555000090460910A0470910B0480910C049091ED
:105560000D040E94C31021CF91110BCF8830C9F0D8
:10557000893009F41ACF8B81813009F016CF8C81E4
:105580008093D9028093CA024091CA025091CB0203
:105590006091CC027091CD0283E190E00E94392DA0
:1055A00004CF8B81813009F000CF8091D902C2CF26
:1055B00080E18A83FACE81E08A838FE6D9CEEA80C1
:1055C000FB80FE24EF24FE248E010F5F1F4FCC8052
:1055D000C00ED12ED11CC7018F569D4F0C151D0535
:1055E00009F4E3CEFFE6EF16F1E0FF0658F40E945F
:1055F000032DD80114968C93FFEFEF1AFF0A0F5F6B
:105600001F4FE9CFF8011482F7CF0A811B811027C1
:1056100001271027AE014F5F5F4F6A01EC80E00E5B
:10562000F12EF11CC8018F569D4FE016F10609F4CA
:10563000BCCE0F3651E0150728F4D60114966C91B4
:105640000E94272DBFEFCB1ADB0A0F5F1F4FEACF57
:105650000E94200EAACE84E0ACCFEA80FB80FE241C
:10566000EF24FE248E010F5F1F4FCC80C00ED12E81
:10567000D11CC7018996C016D10609F496CEE8E57B
:10568000EE16E2E0FE0658F40E94032DD8011496AF
:105690008C93FFEFEF1AFF0A0F5F1F4FEACFF8015D
:1056A0001482F7CF0A811B81102701271027AE0132
:1056B0004F5F5F4F6A01EC80E00EF12EF11CC801D4
:1056C0008996E016F10609F470CE083552E0150708
:1056D00028F4D60114966C910E94272DBFEFCB1AA7
:1056E000DB0A0F5F1F4FEBCF41E08C81811101C0BE
:1056F00040E06B818A810E940F0FA3CE2D813E81F5
:1057000032272327322741E08C81811101C040E0FC
:105710006B818A810E94300E48CE413031F4402F97
:105720006AE580E00E945B0342CC423009F07DCA0A
:1057300081E092959695977001C0880F9A95EAF747
:105740000E94230B34CC19BC19BD09B400FEFDCF57
:105750008091D8008F7D8093D8008091E000826096
:105760008093E0008091E00081FDFCCF0E94C61292
:10577000F1CA88E290E00E94032D1B821C821D82E8
:105780008E8313CE991B79E004C0991F961708F0F9
:10579000961B881F7A95C9F78095089587FB082E78
:1057A000062687FD819567FD61950E94C22B0EF448
:1057B000919507FC81950895AA1BBB1B51E107C079
:1057C000AA1FBB1FA617B70710F0A61BB70B881F91
:1057D000991F5A95A9F780959095BC01CD01089520
:1057E00097FB072E16F4009407D077FD09D00E948E
:1057F000DC2B07FC05D03EF4909581959F4F0895D2
:10580000709561957F4F0895EE0FFF1F0590F491FD
:10581000E02D099469279627692778278727782715
:1058200008950E94AF2D332312F48A1B9B0B0C9416
:105830001B2C0E94AF2DB7FF0895821B930B089578
:105840002F923F924F925F926F927F928F929F9290
:10585000AF92BF92CF92DF92EF92FF920F931F937E
:10586000CF93DF93CDB7DEB7CA1BDB0B0FB6F8942F
:10587000DEBF0FBECDBF09942A88398848885F846F
:105880006E847D848C849B84AA84B984C884DF80E0
:10589000EE80FD800C811B81AA81B981CE0FD11DC4
:1058A0000FB6F894DEBF0FBECDBFED010895002EF8
:1058B000083090F0982F872F762F652F542F432F85
:1058C000322F22270850F4CF220F331F441F551FB9
:1058D000661F771F881F991F0A95B2F7002D08953C
:1058E00097FD1094002E083098F00850232F342F85
:1058F000452F562F672F782F892F912DF4CF159490
:1059000097958795779567955795479537952795F7
:105910000A95AAF71124002D08958F929F92AF92B5
:10592000BF92CF92DF92EF92FF92CF93DF93EC0181
:10593000688179818A819B81611571058105910555
:1059400021F464E279ED8BE597E02DE133EF41E05E
:1059500050E00E945B2D49015A019B01AC01A7EA6E
:10596000B1E40E947A2D6B017C01ACEEB4EFA5018D
:1059700094010E94882DDC01CB018C0D9D1DAE1D74
:10598000BF1DB7FF03C00197A109B0488883998361
:10599000AA83BB839F77DF91CF91FF90EF90DF9039
:1059A000CF90BF90AF909F908F9008950E948D2CC4
:1059B000089580E091E00E948D2C0895B0E0A0E071
:1059C0008093000190930101A0930201B093030121
:1059D0000895FC014150504030F001900616D1F777
:1059E0003197CF010895882799270895FB01DC019D
:1059F00004C08D910190801921F441505040C8F7A6
:105A0000881B990B0895F999FECF92BD81BDF89A34
:105A1000992780B50895A6E1B0E044E050E00C94E9
:105A20004D2DA8E1B0E042E050E00C944D2DDC019A
:105A3000A40FB51F4150504048F0CB01840F951F73
:105A40002E910E94282D41505040D0F70895262FC6
:105A5000F999FECF92BD81BDF89A019700B4021664
:105A600039F01FBA20BD0FB6F894FA9AF99A0FBE12
:105A700008950396272F0E94282D0E94272D252F59
:105A80000E94282D242F0C94282D0196272F0E9448
:105A9000282D0C94272DDC01CB01FC01F999FECFB8
:105AA00006C0F2BDE1BDF89A319600B40D924150A6
:105AB0005040B8F70895052E97FB1EF400940E94FD
:105AC000722D57FD07D00E948D2D07FC03D04EF498
:105AD0000C94722D50954095309521953F4F4F4F26
